:1000000031C196C9A7C949C148C147C146C145C107
:1000100044C143C142C1B2C940C13FC13EC13DC15B
:100020003CC1D6CAD9CADBCADECAE1CAE4CAE7CA39
:10003000EACAEDCAF0CA33CB2ACB33CB36CB3ACBA4
:100040003ECB42CB46CB4ACB4ECB52CB003C102CC6
:10005000201C300C35093A063F032F131F230F33A2
:100060000A3605399FF9099009909FF95707050548
:1000700057070000330033000000000001000000BB
:1000800000000000330033000000000057070505A2
:10009000570700009FF9099009909FF9AE0E0A0AD0
:1000A000AE0E0000CC00CC000000000008000000F4
:1000B00000000000CC00CC0000000000AE0E0A0AD8
:1000C000AE0E00009FF9099009909FF9707550508D
:1000D00070750000003300330000000000100000C5
:1000E0000000000000330033000000007075505025
:1000F000707500009FF9099009909FF9E0EAA0A0AF
:10010000E0EA000000CC00CC00000000008000000D
:100110000000000000CC00CC00000000E0EAA0A03D
:10012000E0EA00009FF9099009909FF90000570745
:1001300005055707000000003300330000000000F1
:1001400000000100000000003300330000005707EA
:10015000050557079FF9099009909FF90000AE0E19
:100160000A0AAE0E00000000CC00CC000000000027
:100170000000080000000000CC00CC000000AE0E23
:100180000A0AAE0E9FF9099009909FF90000707558
:100190005050707500000000003300330000000074
:1001A00000000010000000000033003300007075F4
:1001B000505070759FF9099009909FF90000E0EA8E
:1001C000A0A0E0EA0000000000CC00CC000000008D
:1001D000000000800000000000CC00CC0000E0EA3D
:1001E000A0A0E0EA9FF9099009909FF9AE0E0A0AD3
:1001F000AE0E0000CC00CC000000000066006600DF
:100200000000000033003300000000000000600622
:10021000600600000000000000CC00CC00000000E0
:1002200000660066000000000033003300007075B7
:10023000505070752184000000000000224400002E
:1002400000000000442200000000000048120000EE
:1002500000000000C003000000000000300C00009F
:100260000000000011241FBECFE5D2E0DEBFCDBFED
:1002700010E0A0E6B0E0ECEEF8E102C005900D92CF
:10028000A236B107D9F720E0A2E6B0E001C01D9286
:10029000A437B207E1F7C8D927CBB2CE282F30E078
:1002A000220F331F220F331F260F311D822F880F7D
:1002B000880F840F0895FC01862F82958F708083AC
:1002C000262F2F7030E0359527953595279521837A
:1002D0006370628308952F923F924F925F926F9264
:1002E0007F928F929F92AF92BF92CF92DF92EF92C6
:1002F000FF920F931F93CF93DF93CDB7DEB7619734
:100300000FB6F894DEBF0FBECDBF2C01E12CF12C4F
:10031000612C712C10E028ECE216F10411F0B70109
:1003200002C069EC70E0685C710980EE9EE23BDA25
:1003300077FF03C07195619571096936710534F4D1
:1003400098E7292E312C261A370A03C08FE0282E71
:10035000312CC70144978936E1E09E07D0F40A9713
:10036000853521E09207B8F40C978D33E1E09E07C4
:10037000A0F40D97833221E0920788F40F9785301F
:10038000E1E09E0770F40F97873E910560F487E0E7
:100390000BC081E009C082E007C083E005C084E0B3
:1003A00003C085E001C086E0212F281B2A87A12FEA
:1003B000912CA12CB12CC12CD12CB0E01986812C10
:1003C0008A2FA7FF02C08CE08A0F880F990BFC01CF
:1003D000E45BFF4F0491FC01E35BFF4FE49121E0FC
:1003E00030E040E050E060E070E080E090E01ADA59
:1003F0002B873C874D875E876F87788B898BF92F9A
:1004000021E030E040E050E060E070E080E090E02B
:100410000E2F08DAEB852E2BEC853E2BED854E2B2F
:10042000EE855E2BEF856E2BE8897E2BE9898E2B7E
:100430009F2B922AA32AB42AC52AD62AB72B29850C
:10044000282B2987892AA1508A85A813B9CF998298
:10045000AA82BB82CC82DD82BE832F838886B101D3
:10046000CE01019645D890E9E91691E0F90621F010
:10047000EFEFEE1AFE0A02C0E12CF12C81110EC042
:100480004114510431F02FEF621A720A641475049A
:1004900028F41F5F1C3009F03ECF3CCF61960FB6A9
:1004A000F894DEBF0FBECDBFDF91CF911F910F91AA
:1004B000FF90EF90DF90CF90BF90AF909F908F9084
:1004C0007F906F905F904F903F902F900895AF92E4
:1004D000BF92CF92DF92EF92FF920F931F93CF9331
:1004E000DF93CDB7DEB728970FB6F894DEBF0FBE07
:1004F000CDBF6C01E12CF12CF0D6877090E060E369
:1005000070E007D98C010C591F4F580180E3A80EE9
:10051000B11C0A151B0581F348E050E0B801CE017B
:100520000196D9D968EC70E0CE010196E1D781112E
:100530000EC0C114D10441F08FEFE81AF80AEC1490
:10054000FD0410F080E003C0085F1F4FE2CF289643
:100550000FB6F894DEBF0FBECDBFDF91CF911F91D4
:100560000F91FF90EF90DF90CF90BF90AF900895E4
:10057000AF92BF92CF92DF92EF92FF920F931F93B1
:10058000CF93DF93CDB7DEB728970FB6F894DEBFD1
:100590000FBECDBF6C01E12CF12C84E3A82E82E0CC
:1005A000B82E04EE11E048E050E0B801CE0101960B
:1005B00092D968EC70E0CE0101969AD7811111C0F2
:1005C000C114D10441F08FEFE81AF80AEC14FD04CD
:1005D00010F080E006C0085F1F4FA016B10619F7A3
:1005E000E0CF28960FB6F894DEBF0FBECDBFDF91E7
:1005F000CF911F910F91FF90EF90DF90CF90BF9020
:10060000AF900895EF92FF920F931F93CF93DF93D4
:100610008C01EC017C0180E4E80EF11C5ED68F7346
:10062000F801E80FF11D8081988190838993CE15A0
:10063000DF05A1F7DF91CF911F910F91FF90EF9010
:1006400008958F929F92AF92BF92CF92DF92EF92D6
:10065000FF920F93CF93DF93CDB7DEB7C854D10984
:100660000FB6F894DEBF0FBECDBF4C017E0181E412
:10067000E80EF11CD7011C9211961C92119712964C
:100680001C92129713961C92139714961C9214970F
:1006900015961C92159716961C92169717961C92F3
:1006A000FE01319680E081938F5F8034E1F7C12CA9
:1006B000D12CCE010196A6DFFE0131965F01D50156
:1006C0000D915D0121E030E040E050E060E070E03D
:1006D00080E090E0A7D8D701EC912E272C931196BB
:1006E0002C911197322711963C93119712962C91C9
:1006F0001297422712964C93129713962C911397A8
:10070000522713965C93139714962C911497622793
:1007100014966C93149715962C911597722715962D
:100720007C93159716962C911697822716968C9384
:10073000169717968C911797982717969C936AE2AD
:1007400070E0C701D5D681110EC08114910431F03B
:10075000BFEFCB1ADB0AC814D90428F4AE14BF04C7
:1007600009F0ADCFA6CFC85BDF4F0FB6F894DEBF60
:100770000FBECDBFDF91CF910F91FF90EF90DF9033
:10078000CF90BF90AF909F908F9008957F928F925F
:100790009F92AF92BF92CF92DF92EF92FF920F9310
:1007A0001F93CF93DF9399D5837077247394780E3A
:1007B00010E0C0E0D0E091D5082F0F7021E030E0CC
:1007C00040E050E060E070E080E090E02BD8C22B89
:1007D000D32B1F5F171578F3CE01DF91CF911F91B7
:1007E0000F91FF90EF90DF90CF90BF90AF909F90D0
:1007F0008F907F900895CF92DF92EF92FF920F93A8
:10080000CF93DF93CDB7DEB728970FB6F894DEBF4E
:100810000FBECDBF6C0119821A821B821C821D8201
:100820001E821F821886E12CF12C29813A814B818E
:100830005C816D817E818F81988500E10ED829834E
:100840003A834B835C836D837E838F8398879EDF9F
:100850009C0140E050E060E070E080E090E000E368
:10086000E1D7E9812E2B29832A81322B3A832B81F0
:10087000422B4B832C81522B5C832D81622B6D8309
:100880002E81722B7E832F81822B8F838885982BDC
:10089000988764E670E0CE0101962AD681110BC0DC
:1008A000C114D10411F28FEFE81AF80AEC14FD0418
:1008B00008F4BBCF80E028960FB6F894DEBF0FBED9
:1008C000CDBFDF91CF910F91FF90EF90DF90CF9050
:1008D0000895AF92BF92CF92DF92EF92FF920F9363
:1008E0001F93CF93DF93E62F8130C1F170F08230F8
:1008F00009F087C0ACE0A60FA12CB12CE12CF12CA3
:1009000010E0D0E0C0E0B0E05BC0E295E07FA12C59
:10091000B12CE12CF12C10E0D0E0C0E0B0E0CE2E04
:10092000D12C8FE0C80ED11C8E2F90E0C816D906AE
:100930000CF46FC021E030E040E050E060E070E097
:1009400080E090E00E2F6ED7A22AB32AE42AF52A7F
:10095000162BD72BC82BB92BEF5FE6CFF62FFF0F47
:10096000FF0FEF2FE05DA12CB12CE12CF12C10E05A
:10097000D0E0C0E0B0E0EF1708F44BC0AF2FCF2EAF
:10098000D12C83E0C80ED11C8A2F90E0C816D9065E
:10099000A4F021E030E040E050E060E070E080E072
:1009A00090E00A2F3FD7A22AB32AE42AF52A162B71
:1009B000D72BC82BB92BAF5FE7CFF05FDCCFEC5F55
:1009C000AE1738F1FE2FCE2ED12C80E3C80ED11CED
:1009D0008F2F90E0C816D90694F321E030E040E074
:1009E00050E060E070E080E090E00F2F1BD7A22A7B
:1009F000B32AE42AF52A162BD72BC82BB92BF05F84
:100A0000E7CFA12CB12CE12CF12C10E0D0E0C0E01C
:100A1000B0E09501A701612F7D2F8C2F9B2FDF91D7
:100A2000CF911F910F91FF90EF90DF90CF90BF90EB
:100A3000AF9008952F923F924F925F926F927F9264
:100A40008F929F92AF92BF92CF92DF92EF92FF92DE
:100A50000F931F93CF93DF93CDB7DEB762970FB697
:100A6000F894DEBF0FBECDBF4C015E012FE0A20E99
:100A7000B11C8E01075F1F4F30D48170F801808355
:100A80002CD48170F80181830E5F1F4F0A151B055E
:100A900099F7C12CD12C10E01F87173010F0F6E029
:100AA000FF872F8526952A8BCE0109967C01312C54
:100AB000412C512C188A198A212C612C712C00E0B0
:100AC000F7018181882311F08A8901C08F8590E028
:100AD000039797FF03C0919581959109682FF701BE
:100AE0002081211102C063E0681B802FF2DE322AD0
:100AF000432A542AF889F52BF88B2989262B298B30
:100B0000272A682A792A0F5F82E0E80EF11C033059
:100B1000B9F639824A825B82FC832D832E826F82F2
:100B200078866CED70E0CE010196E2D4811124C08C
:100B30008114910431F09FEFC91AD90AC814D9045D
:100B4000D8F41F5F1A3009F0A7CFFE0139968181D2
:100B5000882321F0808121E0822780833296EA1564
:100B6000FB05A9F7BAD381708A87B7D381708C87C8
:100B7000B4D381708E878FCF62960FB6F894DEBFA4
:100B80000FBECDBFDF91CF911F910F91FF90EF90DE
:100B9000DF90CF90BF90AF909F908F907F906F909D
:100BA0005F904F903F902F90089597D38F73089543
:100BB000AF92BF92CF92DF92EF92FF920F931F936B
:100BC000CF93DF93CDB7DEB728970FB6F894DEBF8B
:100BD0000FBECDBF5C018B01FE0131967E0186E028
:100BE000E80EF11C8DEF6F01D5012C91811104C02D
:100BF0002F3F99F482E012C0332721950CF43095F1
:100C0000482F082E000C550B4217530739F4982F24
:100C10008F5F21F482E0890F01C081E081938F5FB3
:100C2000EE16FF0609F759D365E09DD5F601E90FE9
:100C3000F11DD080F501D082D8016C91C7013BDB5A
:100C4000ED2D0D2C000CFF0BF7FF03C0F195E19586
:100C5000F1093197EE0DFF1D80811D142CF48F5F7B
:100C6000843029F4108204C0815008F483E080832A
:100C700048856F818E8112DBF801808328960FB63C
:100C8000F894DEBF0FBECDBFDF91CF911F910F91C2
:100C9000FF90EF90DF90CF90BF90AF9008957F923C
:100CA0008F929F92AF92BF92CF92DF92EF92FF927C
:100CB0000F931F93CF93DF93CDB7DEB72D970FB66A
:100CC000F894DEBF0FBECDBF982E19861A861B86FC
:100CD0001C868FEF8A878B878C8767DF8987FDD299
:100CE00066E041D58DEF890F87FF02C08D8702C076
:100CF00092509D8719821A821B821C821D821E823D
:100D00001F82188668EC70E0CE010196F1D3811144
:100D10005CC0CC24C394D12CA92CB12C992041F0D7
:100D20008FEFC81AD80ACA14DB0410F080E04DC057
:100D300019821A821B821C821D821E821F821886C3
:100D40007E0189E0E80EF11C13E07E2C8F2CF70168
:100D500003810F3F09F121E030E040E050E060E026
:100D600070E080E090E05ED5E9812E2B29832A8116
:100D7000322B3A832B81422B4B832C81522B5C8369
:100D80002D81622B6D832E81722B7E832F81822B8E
:100D90008F838885982B9887112321F0F701828112
:100DA000838305C0672D782DCE010D9601DF11508C
:100DB000F1E0EF1AF1081F3F51F668EC70E0CE0148
:100DC000019696D3882309F4A9CF2D960FB6F894EF
:100DD000DEBF0FBECDBFDF91CF911F910F91FF906E
:100DE000EF90DF90CF90BF90AF909F908F907F90CB
:100DF00008952F923F924F925F926F927F928F92BF
:100E00009F92AF92BF92CF92DF92EF92FF920F9399
:100E10001F93CF93DF93CDB7DEB72B970FB6F89420
:100E2000DEBF0FBECDBF1C01F12C10E0412C512CB8
:100E300081E0F81651F1F81640F092E0F916F1F160
:100E400083E0F81609F47FC0CEC0812F66E08BD412
:100E5000892F90E0039797FF03C0919581959109A1
:100E6000082F0295007F2FEF3FEF40E050E060E059
:100E700070E080E090E0D6D429833A834B835C8392
:100E80006D837E838F839887A8C02F2D21272170A3
:100E900030E040E050E060E070E080E090E0B2D40C
:100EA00029833A834B835C836D837E838F8398870A
:100EB00014D2682F70E06E5C7F4F91C097EE910F57
:100EC0009987A2EDA10FB0E0612C712C812C912C9F
:100ED000A12CB12CC12CD12C89858A170CF475C09A
:100EE000A03170F582311CF4E5E1EB1B01C0EB2F62
:100EF000E43008F0E3E0F0E024E0EE0FFF1F2A9575
:100F0000E1F7EA0FF11DA7FDFA95EA2E8E2D90E08C
:100F1000E817F907ACF021E030E040E050E060E095
:100F200070E080E090E00E2D7DD4622A732A842A3E
:100F3000952AA62AB72AC82AD92A90E1E90EE6CF2F
:100F4000AF5FBF5FC9CF21EC210F203309F424E24A
:100F5000822F6CE008D48B87822F66E004D4A92FFF
:100F6000B0E093E0AA0FBB1F9A95E1F7CD018C5C2E
:100F70009D4F9A878987612C712C812C912CA12CF3
:100F8000B12CC12CD12CE12CE985FA858591949165
:100F9000AC01EE2DF0E084E0EE0FFF1F8A95E1F743
:100FA0009A0140E050E060E070E080E090E00E2FB9
:100FB00039D4622A732A842A952AA62AB72AC82AEB
:100FC000D92AE3949B859E15F8F669827A828B82F2
:100FD0009C82AD82BE82CF82D88664E670E0CE016C
:100FE000019686D201C080E01F5F81111AC02114D2
:100FF000310441F08FEF481A580A4214530410F09C
:1010000080E00FC01D3031F0183121F01F3311F096
:10101000103709F4F39495E0F9120ACFF12C10E09F
:1010200007CF2B960FB6F894DEBF0FBECDBFDF9172
:10103000CF911F910F91FF90EF90DF90CF90BF90D5
:10104000AF909F908F907F906F905F904F903F9068
:101050002F9008952F923F924F925F926F927F92BE
:101060008F929F92AF92BF92CF92DF92EF92FF92B8
:101070000F931F93CF93DF93CDB7DEB72C970FB6A7
:10108000F894DEBF0FBECDBF6C0110E0212C312CD7
:101090001C3F09F410E0E0E0F0E0412C512C612C01
:1010A000712CA12CB12CE12CF12C812E912CC4019E
:1010B0008E0F9F1F66E070E076D3039797FF03C003
:1010C00091958195910923E030E0281B390BC901E6
:1010D0008295807F8E0FA0E0B0E0282F30E03C8723
:1010E0002B878B859C858A0F9B1F9A87898721E098
:1010F00030E040E050E060E070E080E090E00985A2
:1011000091D3422A532A642A752AA62AB72AE82AA2
:10111000F92A1496A031B10521F73196E430F10592
:1011200031F649825A826B827C82AD82BE82EF8226
:10113000F88666E970E0CE010196DAD11F5F811171
:101140000BC0C114D10409F4A3CF9FEF291A390AA7
:101150002C143D0408F49CCF2C960FB6F894DEBFF7
:101160000FBECDBFDF91CF911F910F91FF90EF90F8
:10117000DF90CF90BF90AF909F908F907F906F90B7
:101180005F904F903F902F9008952F923F924F92F3
:101190005F926F927F928F929F92AF92BF92CF9207
:1011A000DF92EF92FF920F931F93CF93DF93CDB710
:1011B000DEB72C970FB6F894DEBF0FBECDBF4C0143
:1011C00010E0C12CD12C1C3F09F410E0E0E0F0E06D
:1011D000212C312C412C512C612C712CA12CB12CA7
:1011E000812F90E09C878B87E12CF12C8B859C854F
:1011F0008E0F9F1F9A87898789859A858E0D9F1DDF
:1012000066E070E0D0D2039797FF03C09195819577
:101210009109A3E0B0E0A81BB90B84E0AA0FBB1FA3
:101220008A95E1F7C701880F991F880F991F8E0FC4
:101230009F1FA80FB91F21E030E040E050E060E0C0
:1012400070E080E090E00A2FEDD2222A332A442A6F
:10125000552A662A772AA82AB92A9FEFE91AF90A95
:1012600084E0E816F10441F63196E430F10509F026
:10127000BBCF29823A824B825C826D827E82AF82B2
:10128000B88666E970E0CE01019632D11F5F811108
:101290000BC08114910409F496CF9FEFC91AD90AA3
:1012A000C814D90408F48FCF2C960FB6F894DEBF7B
:1012B0000FBECDBFDF91CF911F910F91FF90EF90A7
:1012C000DF90CF90BF90AF909F908F907F906F9066
:1012D0005F904F903F902F90089580916100909182
:1012E0006100880F880F880F8927809361008091A3
:1012F000610090916100829586958770892780931F
:1013000061008091600091E0980F9093600090914F
:1013100061008695869589278093610080916100A0
:101320000895F894809171009091720078940895D6
:101330001F920F920FB60F9211248F9381E080932A
:10134000660082B7809361008F910F900FBE0F905F
:101350001F9018951F920F920FB60F9211248F9322
:10136000CF9903C081E08093670082B780936000CB
:101370008F910F900FBE0F901F9018951F920F9294
:101380000FB60F9211240F931F932F933F934F93F8
:101390005F936F937F938F939F93AF93BF93CF93FD
:1013A000DF93EF93FF93C091680081E090E00C2EF3
:1013B00001C0880F0A94EAF780959FD120916900B7
:1013C00030916A0040916B0050916C0060916D000B
:1013D00070916E0080916F0090917000DC2FD2951B
:1013E000D07F0D2F10E0085F1F4F37D2822F85D19D
:1013F0002091690030916A0040916B0050916C001F
:1014000060916D0070916E0080916F0090917000FE
:101410000D2F23D2822F71D179D1CF5FC43009F43F
:10142000C0E0C0936800809173008F5F8A3061F4E0
:1014300010927300809171009091720001969093C8
:1014400072008093710002C080937300FF91EF914E
:10145000DF91CF91BF91AF919F918F917F916F91CC
:101460005F914F913F912F911F910F910F900FBE60
:101470000F901F901895CF92DF92EF92FF920F93EB
:101480001F9344B155B18C0120E030E0411552402A
:1014900058F06801790165E070E071D18B0120E0BE
:1014A00030E080E092E008C065E070E032D16C018D
:1014B000E12CF12C80E090E064B175B1681B790BF0
:1014C00080E090E0A90198012C193D094E095F09BF
:1014D00031D12FEF31E040E050E078D1C9018C0DDF
:1014E0009D1D1F910F91FF90EF90DF90CF90089579
:1014F000EF92FF920F931F93CF93DF93FC018B0129
:10150000F894708161815281438134812581968173
:1015100087817093690060936A0050936B004093D9
:101520006C0030936D0020936E0090936F00809359
:1015300070007894F6DE7C01369B369A80916600C6
:10154000882399F010926600ECDE209164003091BF
:101550006500821B930B893C910538F0E2DE909385
:101560006500809364008FEF21C08091670088231D
:1015700099F010926700D5DE2091620030916300EF
:10158000821B930B893C910538F0CBDE909363006E
:101590008093620081E00AC0C4DEEC01CE19DF094D
:1015A000C80169DFC817D90738F280E0DF91CF9111
:1015B0001F910F91FF90EF900895CF93C0E08C2F73
:1015C00090E08A30910560F5FC01EF5EFF4F0994D1
:1015D00085E190E0CDD722C08AE261DB1FC089E1BE
:1015E00090E075D71BC080E891E02BD817C086E249
:1015F00090E020DA13C08CE390E0FDD80FC088E5BE
:1016000090E028DD0BC088E590E0BFDD07C080E7F3
:1016100090E0EFDB03C088E592E05DD6811102C067
:10162000CF5FCDCFCF91089586E087B987EC86B99B
:101630003699FECFD4B1369A3699FECFC4B13A98D6
:10164000369A8AB38A638ABB8BB3826C8BBBC29A8D
:101650005DD0D09A10BE82E083BF91E099BF85BF74
:1016600080E882BB80E58BBF3699FECF84B1D80F6E
:10167000D0936000C81BC093610080E0482F50E009
:101680004B30510550F4FA01E55EFF4F099480E0BC
:1016900090E06ED78F5F8F3F59F18B3079F78DDFF8
:1016A000FACF80E0FCDA8E5FF6CF80E090E00FD7D3
:1016B0008D5FF1CF80E090E0C4D78C5FECCF80E00D
:1016C00090E0B8D98B5FE7CF80E090E094D88A5F54
:1016D000E2CF80E090E0BEDC895FDDCF80E090E08B
:1016E00054DD885FD8CF80E090E083DB875FD3CF85
:1016F00080E090E0F0D5865FCECF8FB980E48EB9E0
:101700008BE1769902C08DB9FCCF0895DB9ADB9806
:1017100008950024552704C0080E591F880F991FEB
:10172000009729F076956795B8F37105B9F7802D84
:10173000952F0895EE27FF27AA27BB2708C0A20FE1
:10174000B31FE41FF51F220F331F441F551F96952B
:1017500087957795679598F37040A9F7009799F763
:10176000BD01CF010895991B79E004C0991F961718
:1017700008F0961B881F7A95C9F780950895AA1BD3
:10178000BB1B51E107C0AA1FBB1FA617B70710F06C
:10179000A61BB70B881F991F5A95A9F7809590959E
:1017A000BC01CD01089597FB072E16F4009406D0D6
:1017B00077FD08D0E4DF07FC05D03EF490958195D5
:1017C0009F4F0895709561957F4F0895052E97FB63
:1017D00016F400940FD057FD05D05BD007FC02D063
:1017E00046F408C050954095309521953F4F4F4F96
:1017F0005F4F089590958095709561957F4F8F4FBD
:101800009F4F08956095709580959095309540957F
:10181000509521953F4F4F4F5F4F6F4F7F4F8F4FE9
:101820009F4F08950F93083090F0982F872F762FB1
:10183000652F542F432F322F22270850F4CF220F29
:10184000331F441F551F661F771F881F991F0A9556
:10185000B2F70F91089597FB10F8169400080F93B4
:10186000083098F00850232F342F452F562F672F1C
:10187000782F892F902DF4CF05949795879577959C
:10188000679557954795379527950A95AAF70F912C
:101890000895A1E21A2EAA1BBB1BFD010DC0AA1FB1
:1018A000BB1FEE1FFF1FA217B307E407F50720F0C9
:1018B000A21BB30BE40BF50B661F771F881F991F44
:1018C0001A9469F760957095809590959B01AC018D
:1018D000BD01CF010895FB01DC0102C005900D920E
:0C18E00041505040D8F70895F894FFCF15
:0218EC002A2AA6
:00000001FF
